:1000000012C019C018C017C016C015C014C013C044
:1000100012C011C010C00FC00EC00DC00CC00BC06C
:100020000AC009C008C011241FBECFE5D4E0DEBF5E
:10003000CDBF2DD034C0E4CF181619063CF520E012
:1000400030E052E041E06FE976E8E1E06150704075
:10005000E040E1F700C0000012BA6FE976E8E1E0A5
:1000600061507040E040E1F700C0000052BB6FE912
:1000700076E8E1E061507040E040E1F700C0000048
:1000800042BB2F5F3F4F28173907E9F6089583E0F9
:1000900081BB85E090E0D0DF80E090E00895F894A7
:0200A000FFCF90
:00000001FF
