S01400006C65742D69742D6C696768742E737265637C
S113000012C02CC02BC02AC029C028C027C026C0BB
S113001025C024C023C022C021C020C01FC01EC0D0
S11300201DC01CC01BC011241FBECFE5D4E0DEBF21
S1130030CDBF10E0A0E6B0E0E0ECF0E002C0059037
S11300400D92A436B107D9F720E0A4E6B0E001C0D0
S11300501D92A636B207E1F728D030C0D1CFAC014B
S1130060181619060CF520E030E0A0E6B0E0E4E64E
S1130070F0E06FE986E891E0615080409040E1F75C
S113008000C000009C9195BB6FE986E891E0615047
S113009080409040E1F700C00000908195BB2F5F45
S11300A03F4F2417350729F708958091620084BBD8
S11300B085E090E0D4DF80E090E00895F894FFCFED
S10700C00100010036
S9030000FC
