:1000000012C019C018C017C016C015C014C013C044
:1000100012C011C010C00FC00EC00DC00CC00BC06C
:100020000AC009C008C011241FBECFE5D4E0DEBF5E
:10003000CDBF02D056C0E4CF17BA8FEF81BB88BBCB
:10004000E1E073E067E05FE04FE13FE32FE79FEF20
:1000500086B38E3F11F492BBFBCF12BA86B38D3FAD
:10006000B9F7E2BBA7EAB1E61197F1F700C00000CB
:1000700072BBA7EAB1E61197F1F700C0000062BBBE
:10008000A7EAB1E61197F1F700C0000052BBA7EA5A
:10009000B1E61197F1F700C0000042BBA7EAB1E654
:1000A0001197F1F700C0000032BBA7EAB1E6119743
:1000B000F1F700C0000022BBA7EAB1E61197F1F703
:1000C00000C0000092BBA7EAB1E61197F1F700C0AB
:1000D000000012BAA7EAB1E61197F1F700C00000DC
:0600E000B7CFF894FFCF3A
:00000001FF
