S017000064696769742D696E64696361746F722E7372656312
S113000012C024C023C022C021C020C01FC01EC0F3
S11300101DC01CC01BC01AC019C018C017C016C010
S113002015C014C013C011241FBECFE5D4E0DEBF39
S1130030CDBF10E0A0E6B0E0EEE8F0E002C005902D
S11300400D92A437B107D9F702D01FC0D9CF17BA80
S11300508FEF81BB88BB12BA20E030E04FEF9FEFF7
S113006086B38E3FE9F786B38E3FE9F3F901EE0FCD
S1130070FF1FE05AFF4F808182BB2930310511F404
S1110080242F392F2F5F3F4FEBCFF894FFCF83
S113008E3F0006005B004F0066006D007D00070018
S107009E7F006F006C
S9030000FC
